:100000000C9488000C94B0000C94B0000C94B000D8
:100010000C94B0000C94B0000C94B0000C94B000A0
:100020000C94B0000C94B0000C94B0000C94B00090
:100030000C94B0000C94B0000C94B0000C94B00080
:100040000C944B070C94B0000C94B0000C94B000CE
:100050000C94B0000C94B0000C94B0000C94B00060
:100060000C94B0000C94B000444F4E452100202069
:10007000202020202020202000207365630061665E
:10008000746572200043616E63656C6564210020B5
:1000900020202020202020202020004578706F7311
:1000A000696E672E2E2E0054696D653A00504C53D0
:1000B00052200000000008000201000003040700B5
:1000C0000000000000000001020408102040800130
:1000D000020408102001020408102004040404048F
:1000E00004040402020202020203030303030300E6
:1000F0000000002300260029000000000025002841
:10010000002B0000000000240027002A00007203DA
:1001100011241FBECFEFD8E0DEBFCDBF11E0A0E0BD
:10012000B1E0EAE9F6E102C005900D92A035B10711
:10013000D9F721E0A0E5B1E001C01D92A437B207D4
:10014000E1F710E0C8E8D0E004C02197FE010E946A
:10015000450BC738D107C9F70E9493050C944B0B88
:100160000C94000081E08093060183E591E00E94F9
:10017000A80940E065E083E591E00E94AF0967EAE5
:1001800070E083E591E00E94E50520E030E040E288
:1001900051E46091020170910301809104019091FA
:1001A00005010E94F703682F661F6627661F6B5FB5
:1001B00041E083E591E00E94AF0940910201509136
:1001C0000301609104017091050122E030E083E5B4
:1001D00091E00C94490760E080E10E94710860E0C2
:1001E0008FE00E94710860E08EE00E94710861E07B
:1001F00081E10E94710861E081E10E94AD0860E048
:1002000089E00E94710860E082E00E94710820E0AD
:1002100044E060E183E591E00E94CA0940E064E0C7
:1002200083E591E00E94AF096DEA70E083E591E01B
:100230000E94E505609100017091010183E591E064
:100240000E9409066CED75E080E090E00E94C60710
:1002500083E591E00E94A8090C94B200CF92DF924E
:10026000EF92FF9280E591E00E94AE0A882309F4A4
:100270007BC0C0900201D0900301E0900401F09097
:10028000050120E030E040E251E4803181F5C70112
:10029000B6010E94F70387FF05C020E030E040E090
:1002A0005FE304C020E030E040E85FE3C701B6014F
:1002B0000E948B03609302017093030180930401F9
:1002C0009093050120E030E046E153E460910201A3
:1002D0007091030180910401909105010E94200515
:1002E00087FD3CC080E090E0A6E1B3E42FC0C701E9
:1002F000B6010E94F70318162CF020E030E040E031
:100300005FE304C020E030E040E85FE3C701B601EE
:100310000E948A0360930201709303018093040199
:100320009093050120E030E040E05FE3609102013E
:100330007091030180910401909105010E94F703DF
:10034000181664F080E090E0A0E0BFE38093020123
:1003500090930301A0930401B0930501FF90EF90E7
:10036000DF90CF900C94B200FF90EF90DF90CF9091
:1003700008954F925F926F927F928F929F92AF9269
:10038000BF92CF92DF92EF92FF92CF93DF938FE0F5
:100390000E94DC08892B09F432C10E9495074B01A9
:1003A0005C011092060160E081E10E94AD0883E5E6
:1003B00091E00E94A80940E063E083E591E00E949B
:1003C000AF096BE970E083E591E00E94E5050E94CA
:1003D0009507681979098A099B090E946E046B01C7
:1003E0007C0120E030E04AE754E460910201709122
:1003F000030180910401909105010E9425059B0154
:10040000AC01C701B6010E94F70318160CF4C8C06E
:1004100080E10E94DC08892B09F472C061E081E16F
:100420000E94AD0840E063E083E591E00E94AF09DF
:100430006FE870E083E591E00E94E50540E063E04D
:1004400083E591E00E94AF0965E870E083E591E003
:100450000E94E50541E061E083E591E00E94AF097B
:100460006EE770E083E591E00E94E5050E94950744
:10047000681979098A099B090E946E0420E030E01E
:100480004AE754E40E94FC03AB01BC0122E030E0E7
:1004900083E591E00E94490769E770E083E591E018
:1004A0000E94E50564EF71E080E090E00E94C607DD
:1004B000CEEED2E062E070E080E090E00E94C607FD
:1004C00080E10E94DC08892B59F48FE00E94DC084F
:1004D000892B31F48EE00E94DC08892B09F47BC063
:1004E00080E10E94DC08892BD9F78FE00E94DC08AC
:1004F000892BB1F78EE00E94DC08892B89F76FC049
:100500000E9495076B017C01C818D908EA08FB080E
:10051000C701B60124E630E040E050E00E94260B1F
:10052000672B682B692B09F052CF41E066E083E529
:1005300091E00E94AF096EE670E083E591E00E94D1
:10054000E50541E066E083E591E00E94AF0920E027
:1005500030E04AE754E46091020170910301809118
:100560000401909105010E9425052B013C01C70162
:10057000B6010E9470049B01AC01C301B2010E944C
:100580008A0320E030E04AE754E40E94FC03AB0118
:10059000BC0121E030E083E591E00E94490717CFDC
:1005A00061E081E10E94AD0883E591E00E94A80925
:1005B00040E065E083E591E00E94AF0968E670E005
:1005C00083E591E00E94E50568EE73E080E090E04D
:1005D0000E94C60704C0219709F06CCF81CFDF913C
:1005E000CF91FF90EF90DF90CF90BF90AF909F9012
:1005F0008F907F906F905F904F900C94B200DF913E
:10060000CF91FF90EF90DF90CF90BF90AF909F90F1
:100610008F907F906F905F904F9008958EE00E9432
:10062000DC08892BE9F11092060160E081E10E946B
:10063000AD0883E591E00E94A80940E062E083E50F
:1006400091E00E94AF0967E071E083E591E00E94CC
:1006500009068EE00E94DC08892BD9F78EE00E9403
:10066000DC08892B29F480E10E94DC08892BB1F396
:1006700061E081E10E94AD080E94B20080E10E9429
:10068000DC08892BD9F78FE00E94DC08892BB1F7B1
:100690008EE00E94DC08892B89F781E080930601B7
:1006A000089580E10E94DC08892B99F080E090E0B9
:1006B000A0E0B1E48093020190930301A0930401B0
:1006C000B09305010E94B20080E10E94DC08892BF2
:1006D000D9F708950E94B9010E940E030E945103A8
:1006E0000C942E01CF92EF920F9387E0C82E96E0E4
:1006F000E92E05E024E043E068E083E591E00E9414
:100700006F0A49E062E080E591E00F91EF90CF90B1
:100710000C94950A5058BB27AA270E94A2030C9458
:10072000E6040E94D80438F00E94DF0420F039F477
:100730009F3F19F426F40C94D5040EF4E095E7FBE2
:100740000C94CF04E92F0E94F70458F3BA176207FC
:1007500073078407950720F079F4A6F50C94190522
:100760000EF4E0950B2EBA2FA02D0B01B9019001CC
:100770000C01CA01A0011124FF27591B99F0593F10
:1007800050F4503E68F11A16F040A22F232F342F58
:100790004427585FF3CF469537952795A795F040A6
:1007A0005395C9F77EF41F16BA0B620B730B840BBB
:1007B000BAF09150A1F0FF0FBB1F661F771F881F73
:1007C000C2F70EC0BA0F621F731F841F48F48795CB
:1007D00077956795B795F7959E3F08F0B0CF9395BD
:1007E000880F08F09927EE0F9795879508950E9436
:1007F000AB0408F481E008950E9410040C94E60410
:100800000E94DF0458F00E94D80440F029F45F3FB2
:1008100029F00C94CF0451110C941A050C94D504B2
:100820000E94F70468F39923B1F3552391F3951BC4
:10083000550BBB27AA2762177307840738F09F5F01
:100840005F4F220F331F441FAA1FA9F335D00E2E6E
:100850003AF0E0E832D091505040E695001CCAF7DB
:100860002BD0FE2F29D0660F771F881FBB1F26179E
:1008700037074807AB07B0E809F0BB0B802DBF0175
:10088000FF2793585F4F3AF09E3F510578F00C9444
:10089000CF040C941A055F3FE4F3983ED4F3869599
:1008A00077956795B795F7959F5FC9F7880F911D65
:1008B0009695879597F90895E1E0660F771F881F51
:1008C000BB1F621773078407BA0720F0621B730B04
:1008D000840BBA0BEE1F88F7E0950895E89409C0E1
:1008E00097FB3EF490958095709561957F4F8F4F63
:1008F0009F4F9923A9F0F92F96E9BB279395F69579
:10090000879577956795B795F111F8CFFAF4BB0FF6
:1009100011F460FF1BC06F5F7F4F8F4F9F4F16C05A
:10092000882311F096E911C0772321F09EE8872FE4
:10093000762F05C0662371F096E8862F70E060E0A0
:100940002AF09A95660F771F881FDAF7880F969519
:10095000879597F90895990F0008550FAA0BE0E8BD
:10096000FEEF16161706E807F907C0F01216130671
:10097000E407F50798F0621B730B840B950B39F4B1
:100980000A2661F0232B242B252B21F408950A2617
:1009900009F4A140A6958FEF811D811D089597F957
:1009A0009F6780E870E060E008959FEF80EC089515
:1009B00000240A941616170618060906089500243E
:1009C0000A9412161306140605060895092E0394B8
:1009D000000C11F4882352F0BB0F40F4BF2B11F42C
:1009E00060FF04C06F5F7F4F8F4F9F4F089557FD8B
:1009F0009058440F551F59F05F3F71F04795880F8D
:100A000097FB991F61F09F3F79F087950895121623
:100A100013061406551FF2CF4695F1DF08C01616CF
:100A200017061806991FF1CF869571056105089480
:100A30000895E894BB2766277727CB0197F9089597
:100A40000E94AB0408F48FEF08950E9438050C94BF
:100A5000E6040E94D80438F00E94DF0420F09523B9
:100A600011F00C94CF040C94D50411240C941A05A5
:100A70000E94F70470F3959FC1F3950F50E0551F46
:100A8000629FF001729FBB27F00DB11D639FAA27E3
:100A9000F00DB11DAA1F649F6627B00DA11D661F32
:100AA000829F2227B00DA11D621F739FB00DA11D53
:100AB000621F839FA00D611D221F749F3327A00D0D
:100AC000611D231F849F600D211D822F762F6A2FA9
:100AD00011249F5750409AF0F1F088234AF0EE0F0E
:100AE000FF1FBB1F661F771F881F91505040A9F73B
:100AF0009E3F510580F00C94CF040C941A055F3F83
:100B0000E4F3983ED4F3869577956795B795F79576
:100B1000E7959F5FC1F7FE2B880F911D96958795EE
:100B200097F9089508950E940D080E9492050E9469
:100B3000EB00C0E0D0E00E946A032097E1F30E943E
:100B40000000F9CF80E090E008950895CF92DF9201
:100B5000EF92FF920F931F93CF93DF936C017A0173
:100B60008B01C0E0D0E0CE15DF0581F0D8016D919A
:100B70008D01D601ED91FC910190F081E02DC6012F
:100B80000995892B11F02196EECF7E01C701DF91E7
:100B9000CF911F910F91FF90EF90DF90CF9008952C
:100BA0006115710579F0FB0101900020E9F731979B
:100BB000AF01461B570BDC01ED91FC910280F381E4
:100BC000E02D099480E090E00895EF92FF920F935A
:100BD0001F93CF93DF938C017B01C0E0D0E0F7013E
:100BE000EC0FFD1F6491662361F0D801ED91FC913B
:100BF0000190F081E02DC8010995892B11F0219613
:100C0000EECFCE01DF91CF911F910F91FF90EF902A
:100C100008950C94D005DC01ED91FC910190F081D8
:100C2000E02D09948F929F92AF92BF92EF92FF9224
:100C30000F931F93CF93DF93CDB7DEB7A1970FB676
:100C4000F894DEBF0FBECDBF7C01FA01CB0119A223
:100C5000223008F42AE08E010F5D1F4F822E912C66
:100C6000A12CB12CBF01A50194010E94040BF90134
:100C7000CA01015011096A3010F4605D01C0695C5D
:100C8000D8016C93232B242B252B61F7B801C701C6
:100C90000E94D005A1960FB6F894DEBF0FBECDBF5F
:100CA000DF91CF911F910F91FF90EF90BF90AF9088
:100CB0009F908F9008952115310541F4DC01ED914D
:100CC000FC910190F081E02D642F09940C941206A0
:100CD0009A01AB0160E070E00C945B067F928F920A
:100CE0009F92AF92BF92CF92DF92EF92FF920F93BB
:100CF0001F93CF93DF938C016A017B01722E9A01BF
:100D0000AB01C701B6010E94FF0A882319F06CE10C
:100D100071E027C046015701E894B7F82FEF3FEF85
:100D20004FE75FE7C501B4010E94FF0A81110DC0C2
:100D30002FEF3FEF4FE75FE7C501B4010E94F703D4
:100D400018161CF460E271E00CC02FEF3FEF4FE784
:100D50005FE4C701B6010E942005181694F464E20E
:100D600071E0C801DF91CF911F910F91FF90EF903B
:100D7000DF90CF90BF90AF909F908F907F900C941A
:100D8000D0052FEF3FEF4FE75FECC701B6010E94A0
:100D9000F70387FDE4CF20E030E0A901C701B601E9
:100DA0000E94F70387FF0AC06DE2C8010E940B068C
:100DB000EC01F7FAF094F7F8F09402C0C0E0D0E04C
:100DC000B12C60E070E080E09FE37B1441F020E014
:100DD00030E040E251E40E94FC03B394F6CFA70157
:100DE00096010E948B036B017C010E94D00A4B018B
:100DF0005C012AE0AB01BC01C8010E941206C80FC9
:100E0000D91F7720B9F1C501B4010E946E049B017E
:100E1000AC01C701B6010E948A036B017C016EE23E
:100E2000C8010E940B06C80FD91F20E030E040E245
:100E300051E4C701B6010E9425054B015C010E94E7
:100E4000D00A6B017C014AE050E0C8010E946806AC
:100E5000C80FD91FB60180E090E00E946E049B018C
:100E6000AC01C501B4010E948A036B017C017A9434
:100E70007110DBCFCE01DF91CF911F910F91FF90C9
:100E8000EF90DF90CF90BF90AF909F908F907F902A
:100E900008950C946E061F920F920FB60F921124B4
:100EA0002F933F938F939F93AF93BF9380916C0148
:100EB00090916D01A0916E01B0916F0130916B0125
:100EC00023E0230F2D3720F40196A11DB11D05C08D
:100ED00026E8230F0296A11DB11D20936B0180937C
:100EE0006C0190936D01A0936E01B0936F0180919E
:100EF000700190917101A0917201B09173010196FE
:100F0000A11DB11D8093700190937101A093720196
:100F1000B0937301BF91AF919F918F913F912F91AA
:100F20000F900FBE0F901F9018952FB7F8946091F7
:100F30006C0170916D0180916E0190916F012FBFD6
:100F400008953FB7F8948091700190917101A0913C
:100F50007201B091730126B5A89B05C02F3F19F00F
:100F60000196A11DB11D3FBFBA2FA92F982F882729
:100F7000820F911DA11DB11DBC01CD0142E0660F84
:100F8000771F881F991F4A95D1F708958F929F92D6
:100F9000AF92BF92CF92DF92EF92FF926B017C01F2
:100FA0000E94A1074B015C01C114D104E104F104CA
:100FB00001F10E94CF0A0E94A107DC01CB01881930
:100FC0009909AA09BB09883E9340A105B10560F3C0
:100FD00021E0C21AD108E108F10888EE880E83E00A
:100FE000981EA11CB11CC114D104E104F10419F72D
:100FF000DBCFFF90EF90DF90CF90BF90AF909F90AE
:101000008F9008958230910538F0880F991F880FCE
:10101000991F05970197F1F70895789484B5826038
:1010200084BD84B5816084BD85B5826085BD85B58C
:10103000816085BDEEE6F0E0808181608083E1E83B
:10104000F0E0108280818260808380818160808373
:10105000E0E8F0E0808181608083E1EBF0E0808176
:1010600084608083E0EBF0E0808181608083EAE748
:10107000F0E08081846080838081826080838081D1
:10108000816080838081806880831092C100089590
:10109000833081F028F4813099F08230A1F00895F6
:1010A0008730A9F08830B9F08430D1F48091800085
:1010B0008F7D03C0809180008F778093800008959A
:1010C00084B58F7702C084B58F7D84BD08958091EB
:1010D000B0008F7703C08091B0008F7D8093B00007
:1010E0000895CF93DF9390E0FC01E953FF4F2491E3
:1010F000FC01E552FF4F8491882361F190E0880F55
:10110000991FFC01ED5FFE4FC591D491FC01E750A2
:10111000FF4FA591B491611109C09FB7F8948881E0
:10112000209582238883EC912E230BC0623061F4DA
:101130009FB7F8948881322F309583238883EC9170
:101140002E2B2C939FBF06C08FB7F894E8812E2BCF
:1011500028838FBFDF91CF9108951F93CF93DF93A3
:10116000282F30E0F901ED54FF4F8491F901E95344
:10117000FF4FD491F901E552FF4FC491CC23C1F048
:10118000162F81110E944808EC2FF0E0EE0FFF1F90
:10119000E750FF4FA591B4919FB7F894111104C087
:1011A0008C91D095D82302C0EC91DE2BDC939FBFAD
:1011B000DF91CF911F910895CF93DF93282F30E0D7
:1011C000F901ED54FF4F8491F901E953FF4FD49198
:1011D000F901E552FF4FC491CC2391F081110E9497
:1011E0004808EC2FF0E0EE0FFF1FE151FF4FA591F3
:1011F000B491EC91ED2381E090E021F480E002C015
:1012000080E090E0DF91CF910895CF93DF93EC01E0
:1012100060E08E810E94AD0881E090E00E940208AB
:1012200061E08E810E94AD0881E090E00E9402089A
:1012300060E08E810E94AD0884E690E0DF91CF915E
:101240000C940208CF92DF92EF92FF920F931F93BC
:10125000CF93DF936C017C0187E0E80EF11CC0E0C6
:10126000D0E0062F10E0B8010C2E02C075956795EE
:101270000A94E2F76170F70181917F010E94AD0845
:101280002196C430D10579F7C601DF91CF911F9126
:101290000F91FF90EF90DF90CF900C940509CF92C3
:1012A000DF92EF92FF920F931F93CF93DF936C0126
:1012B0007C0187E0E80EF11CC0E0D0E0062F10E0D2
:1012C000B8010C2E02C0759567950A94E2F761701B
:1012D000F70181917F010E94AD082196C830D105A8
:1012E00079F7C601DF91CF911F910F91FF90EF9099
:1012F000DF90CF900C9405091F93CF93DF93EC01FF
:10130000162F642F8C810E94AD088D818F3F19F0BC
:1013100060E00E94AD088F85612F84FF06C0CE017A
:10132000DF91CF911F910C944F0970E084E0759587
:1013300067958A95E1F7CE010E942209612FCE01BF
:10134000DF91CF911F910C94220940E00C947C090D
:1013500061E00E94A50980ED97E00C940208FC0171
:10136000443008F043E08389481710F04FEF480FEE
:10137000DF01A40FB11D54969C91690F6068CF01E5
:101380000C94A509FC016089262F2460208B6C60D9
:101390000C94A509EF92FF920F931F93CF93DF93C5
:1013A000EC01423018F08F8588608F874B8B1C8A48
:1013B00080E48D8B6E8B70E0605C7F4F6F8B22239F
:1013C00029F0413019F48F8584608F8761E08C812A
:1013D0000E9471088D818F3F19F061E00E947108B1
:1013E00061E08E810E9471087E0187E0E80EF11CA9
:1013F00000E010E08F8584FD03C084E090E002C02F
:1014000088E090E0081719074CF461E0F70181913A
:101410007F010E9471080F5F1F4FECCF80E593ECB6
:101420000E94020860E08C810E94AD0860E08E811D
:101430000E94AD088D818F3F19F060E00E94AD08D9
:101440006F8564FD1DC063E0CE010E94220984E91E
:1014500091E10E94020863E0CE010E94220984E922
:1014600091E10E94020863E0CE010E94220986E910
:1014700090E00E94020862E0CE010E94220916C09C
:101480006062CE010E94A50984E991E10E940208F0
:101490006F856062CE010E94A50986E990E00E94F6
:1014A00002086F856062CE010E94A5096F856062A7
:1014B000CE010E94A50984E0888BCE010E94C2095A
:1014C000CE010E94A80982E0898B66E0CE01DF91FF
:1014D000CF911F910F91FF90EF900C94A509CF929F
:1014E000EF920F93FC01138212828CE291E09183C0
:1014F000808364838FEF8583468327830087E1861B
:10150000C2861386148615861686178620E041E06B
:1015100060E1CF010F91EF90CF900C94CA0941E0A8
:101520000E947C0981E090E00895CF93DF93EC0165
:10153000862F69834A8360E00E94710860E08A8197
:101540000E94710861E089810E94AD0861E08A8192
:101550000E94AD081882DF91CF9108950F931F93D9
:10156000CF93DF93EC018A810E94DC088C01898192
:101570000E94DC08E881EF70000F111F802B94E0BF
:10158000E99FF0011124EC5CFE4FE80FF11D808112
:1015900088838073DF91CF911F910F9108950895F3
:1015A0000E94FF0488F09F5798F0B92F9927B751F0
:1015B000B0F0E1F0660F771F881F991F1AF0BA95F7
:1015C000C9F714C0B13091F00E941905B1E0089537
:1015D0000C941905672F782F8827B85F39F0B93F29
:1015E000CCF3869577956795B395D9F73EF49095AA
:1015F0008095709561957F4F8F4F9F4F08950E9402
:10160000AB04880B990B0895A1E21A2EAA1BBB1BF1
:10161000FD010DC0AA1FBB1FEE1FFF1FA217B307BE
:10162000E407F50720F0A21BB30BE40BF50B661FD4
:10163000771F881F991F1A9469F760957095809598
:1016400090959B01AC01BD01CF010895052E97FB3C
:101650001EF400940E943D0B57FD07D00E94040B1E
:1016600007FC03D04EF40C943D0B509540953095FB
:1016700021953F4F4F4F5F4F0895909580957095FE
:1016800061957F4F8F4F9F4F0895EE0FFF1F05907D
:0A169000F491E02D0994F894FFCFC7
:10169A00140100002041012E2E2E4259504153536D
:1016AA002E2E2E0076322E31000D0A006E616E004B
:1016BA00696E66006F766600000000008F0AA60554
:1016CA00A205A505000204000300011003020000A0
:1016DA0003020100060004000605002006050400B6
:00000001FF
