:100000000C9488000C94B0000C94B0000C94B000D8
:100010000C94B0000C94B0000C94B0000C94B000A0
:100020000C94B0000C94B0000C94B0000C94B00090
:100030000C94B0000C94B0000C94B0000C94B00080
:100040000C94A5080C94B0000C94B0000C94B00073
:100050000C94B0000C94B0000C94B0000C94B00060
:100060000C94B0000C94B000504C535220005469D2
:100070006D653A004578706F73696E672E2E2E009D
:1000800020202020202020202020200043616E639B
:10009000656C65642100616674657220002073657B
:1000A00063002020202020202020202000444F4ECC
:1000B00045210000000008000201000003040700C1
:1000C0000000000000000001020408102040800130
:1000D000020408102001020408102004040404048F
:1000E00004040402020202020203030303030300E6
:1000F0000000002300260029000000000025002841
:10010000002B0000000000240027002A0000D70474
:1001100011241FBECFEFD8E0DEBFCDBF11E0A0E0BD
:10012000B1E0EEE4F9E102C005900D92AC34B10704
:10013000D9F721E0ACE4B1E001C01D92A137B207CC
:10014000E1F710E0C8E8D0E004C02197FE010E946A
:100150009F0CC738D107C9F70E94ED060C94A50C77
:100160000C940000CF93DF9300D000D0CDB7DEB762
:100170009A8389837C836B8389819A812B813C81DB
:10018000FC013183208300000F900F900F900F909F
:10019000DF91CF910895CF93DF9300D000D0CDB7FA
:1001A000DEB79C838B8360E070E0CE0101960E94F5
:1001B000B20089819A810F900F900F900F90DF917C
:1001C000CF910895CF93DF93CDB7DEB760E080E1A4
:1001D0000E94CB0960E08FE00E94CB0960E08EE0D6
:1001E0000E94CB0961E081E10E94CB0961E081E1DD
:1001F0000E94070A60E089E00E94CB0960E082E08B
:100200000E94CB0920E044E060E18DE491E00E948F
:10021000240B8CE491E00E94CB0040E064E08DE48C
:1002200091E00E94090B88E690E0BC018DE491E02A
:100230000E943F078091050190910601BC018DE469
:1002400091E00E9463076CED75E080E090E00E9411
:1002500020098DE491E00E94020B0E94330100000E
:10026000DF91CF910895CF93DF93CDB7DEB781E0D3
:10027000809300018DE491E00E94020B40E065E074
:100280008DE491E00E94090B8EE690E0BC018DE4C4
:1002900091E00E943F0741E066E08DE491E00E941A
:1002A000090B8091010190910201A0910301B0918D
:1002B000040122E030E0AC01BD018DE491E00E9438
:1002C000A3080000DF91CF910895CF93DF9300D072
:1002D000CDB7DEB785E691E00E94080C898389815D
:1002E000882309F4D9C081E09981903109F080E038
:1002F0008A838A81882309F467C0809101019091E3
:100300000201A0910301B091040120E030E040E23D
:1003100051E4BC01CD010E9451058823DCF4809199
:10032000010190910201A0910301B091040120E02C
:1003300030E040E05FE3BC01CD010E94E504DC0158
:10034000CB018093010190930201A0930301B0932C
:1003500004011AC08091010190910201A091030152
:10036000B091040120E030E040E85FE3BC01CD0142
:100370000E94E504DC01CB0180930101909302010E
:10038000A0930301B09304018091010190910201B7
:10039000A0910301B091040120E030E046E153E474
:1003A000BC01CD010E947A0688230CF472C080E063
:1003B00090E0A6E1B3E48093010190930201A09341
:1003C0000301B093040165C0809101019091020185
:1003D000A0910301B091040120E030E040E251E43B
:1003E000BC01CD010E9451051816DCF0809101017D
:1003F00090910201A0910301B091040120E030E04E
:1004000040E05FE3BC01CD010E94E404DC01CB01CC
:100410008093010190930201A0930301B093040122
:100420001AC08091010190910201A0910301B09145
:10043000040120E030E040E85FE3BC01CD010E9410
:10044000E404DC01CB018093010190930201A093AD
:100450000301B09304018091010190910201A091E8
:100460000301B091040120E030E040E05FE3BC0113
:10047000CD010E945105181664F080E090E0A0E0E4
:10048000BFE38093010190930201A0930301B09315
:1004900004010E94330101C000000F900F90DF9112
:1004A000CF910895CF92DF92EF92FF920F931F9317
:1004B000CF93DF93CDB7DEB72A970FB6F894DEBFA0
:1004C0000FBECDBF8FE00E94360A21E0892B09F4D0
:1004D00020E0222309F48CC10E94EF08DC01CB014B
:1004E0008B839C83AD83BE831092000160E081E129
:1004F0000E94070A8DE491E00E94020B40E063E055
:100500008DE491E00E94090B84E790E0BC018DE44A
:1005100091E00E943F070E94EF089B01AC018B8194
:100520009C81AD81BE8179018A01E81AF90A0A0B22
:100530001B0BD801C701BC01CD010E94C8056B018E
:100540007C018091010190910201A0910301B09181
:10055000040120E030E04AE754E4BC01CD010E94F0
:100560007F06DC01CB0111E09C01AD01C701B601A2
:100570000E94510518160CF410E0112309F41BC158
:1005800080E10E94360A21E0892B09F420E0222331
:1005900009F4A0C061E081E10E94070A40E063E045
:1005A0008DE491E00E94090B80E890E0BC018DE4AD
:1005B00091E00E943F0740E063E08DE491E00E94FB
:1005C000090B8CE890E0BC018DE491E00E943F07AC
:1005D00040E061E08DE491E00E94090B86E990E043
:1005E000BC018DE491E00E943F070E94EF089B014F
:1005F000AC018B819C81AD81BE8179018A01E81AB1
:10060000F90A0A0B1B0BD801C701BC01CD010E94DE
:10061000C805DC01CB0120E030E04AE754E4BC012E
:10062000CD010E945605DC01CB0122E030E0AC0197
:10063000BD018DE491E00E94A3088DE990E0BC012A
:100640008DE491E00E943F0764EF71E080E090E06C
:100650000E9420091A82198289819A818C3D9540D5
:100660000CF562E070E080E090E00E94200980E1FB
:100670000E94360A892B51F48FE00E94360A892B9A
:1006800029F48EE00E94360A892B11F081E001C026
:1006900080E0882309F006C089819A8102969A83B6
:1006A0008983DACF80E10E94360A892B51F48FE0EA
:1006B0000E94360A892B29F48EE00E94360A892B83
:1006C00011F081E001C080E0882309F0EBCF0E94A7
:1006D00033018EC00E94EF089B01AC018B819C818D
:1006E000AD81BE8179018A01E81AF90A0A0B1B0B58
:1006F000D801C7018F839887A987BA878F8198858A
:10070000A985BA8524E630E040E050E0BC01CD0187
:100710000E94800CDC01CB01892B8A2B8B2B09F0EA
:10072000FACE41E066E08DE491E00E94090B82EA96
:1007300090E0BC018DE491E00E943F0741E066E05B
:100740008DE491E00E94090B8091010190910201DA
:10075000A0910301B091040120E030E04AE754E4A5
:10076000BC01CD010E947F06DC01CB016C017D0143
:100770006F81788589859A850E94CA05DC01CB0145
:100780009C01AD01C701B6010E94E404DC01CB016C
:1007900020E030E04AE754E4BC01CD010E94560558
:1007A000DC01CB0121E030E0AC01BD018DE491E042
:1007B0000E94A308B0CE61E081E10E94070A8DE4A7
:1007C00091E00E94020B40E065E08DE491E00E9420
:1007D000090B8DEA90E0BC018DE491E00E943F0797
:1007E00068EE73E080E090E00E9420090E943301EF
:1007F0002A960FB6F894DEBF0FBECDBFDF91CF9122
:100800001F910F91FF90EF90DF90CF900895CF93BD
:10081000DF93CDB7DEB78EE00E94360A21E0892B48
:1008200009F020E0222309F04FC01092000160E09F
:1008300081E10E94070A8DE491E00E94020B40E0F2
:1008400064E08DE491E00E94090B6CE071E08DE4BE
:1008500091E00E9463078EE00E94360A21E0892B16
:1008600009F420E0222309F0F6CF8EE00E94360A38
:10087000892B39F480E10E94360A892B11F481E03A
:1008800001C080E0882309F0F0CF61E081E10E949F
:10089000070A0E94330180E10E94360A892B51F435
:1008A0008FE00E94360A892B29F48EE00E94360AD6
:1008B000892B11F081E001C080E0882309F0EBCFA3
:1008C00081E08093000101C00000DF91CF91089585
:1008D000CF93DF93CDB7DEB780E10E94360A21E0E7
:1008E000892B09F020E02223C1F480E090E0A0E011
:1008F000B1E48093010190930201A0930301B093AE
:1009000004010E94330180E10E94360A21E0892B14
:1009100009F420E0222311F0F6CF0000DF91CF91FF
:100920000895CF93DF93CDB7DEB70E9452020E94A5
:1009300007040E9468040E9465010000DF91CF91C6
:100940000895CF92EF920F93CF93DF9300D000D012
:10095000CDB7DEB79A8389837C836B8389819A8143
:100960000197D1F48B819C810196B1F40F2EF7E0B1
:10097000CF2EF02D0F2EF6E0EF2EF02D05E024E027
:1009800043E068E08DE491E00E94C90B49E062E039
:1009900085E691E00E94EF0B00000F900F900F9002
:1009A0000F90DF91CF910F91EF90CF900895CF935B
:1009B000DF93CDB7DEB76FEF7FEF81E090E00E946D
:1009C000A104DF91CF9108955058BB27AA270E9418
:1009D000FC040C9440060E94320638F00E9439064E
:1009E00020F039F49F3F19F426F40C942F060EF4EE
:1009F000E095E7FB0C942906E92F0E94510658F375
:100A0000BA17620773078407950720F079F4A6F5F3
:100A10000C9473060EF4E0950B2EBA2FA02D0B014B
:100A2000B90190010C01CA01A0011124FF27591B33
:100A300099F0593F50F4503E68F11A16F040A22F39
:100A4000232F342F4427585FF3CF469537952795AA
:100A5000A795F0405395C9F77EF41F16BA0B620BA9
:100A6000730B840BBAF09150A1F0FF0FBB1F661FF0
:100A7000771F881FC2F70EC0BA0F621F731F841F33
:100A800048F4879577956795B795F7959E3F08F059
:100A9000B0CF9395880F08F09927EE0F979587951B
:100AA00008950E94050608F481E008950E946A05F1
:100AB0000C9440060E94390658F00E94320640F01D
:100AC00029F45F3F29F00C94290651110C94740607
:100AD0000C942F060E94510668F39923B1F3552315
:100AE00091F3951B550BBB27AA2762177307840741
:100AF00038F09F5F5F4F220F331F441FAA1FA9F3D7
:100B000035D00E2E3AF0E0E832D091505040E695C4
:100B1000001CCAF72BD0FE2F29D0660F771F881F25
:100B2000BB1F261737074807AB07B0E809F0BB0B18
:100B3000802DBF01FF2793585F4F3AF09E3F51052C
:100B400078F00C9429060C9474065F3FE4F3983E09
:100B5000D4F3869577956795B795F7959F5FC9F715
:100B6000880F911D9695879597F90895E1E0660F96
:100B7000771F881FBB1F621773078407BA0720F00F
:100B8000621B730B840BBA0BEE1F88F7E095089578
:100B9000E89409C097FB3EF4909580957095619517
:100BA0007F4F8F4F9F4F9923A9F0F92F96E9BB27CD
:100BB0009395F695879577956795B795F111F8CF49
:100BC000FAF4BB0F11F460FF1BC06F5F7F4F8F4FB4
:100BD0009F4F16C0882311F096E911C0772321F0AA
:100BE0009EE8872F762F05C0662371F096E8862F42
:100BF00070E060E02AF09A95660F771F881FDAF799
:100C0000880F9695879597F90895990F0008550FC5
:100C1000AA0BE0E8FEEF16161706E807F907C0F082
:100C200012161306E407F50798F0621B730B840B8A
:100C3000950B39F40A2661F0232B242B252B21F464
:100C400008950A2609F4A140A6958FEF811D811D04
:100C5000089597F99F6780E870E060E008959FEF3E
:100C600080EC089500240A94161617061806090643
:100C7000089500240A941216130614060506089512
:100C8000092E0394000C11F4882352F0BB0F40F49A
:100C9000BF2B11F460FF04C06F5F7F4F8F4F9F4FDA
:100CA000089557FD9058440F551F59F05F3F71F05C
:100CB0004795880F97FB991F61F09F3F79F08795C3
:100CC0000895121613061406551FF2CF4695F1DF4C
:100CD00008C0161617061806991FF1CF86957105DC
:100CE000610508940895E894BB2766277727CB0110
:100CF00097F908950E94050608F48FEF08950E9461
:100D000092060C9440060E94320638F00E94390682
:100D100020F0952311F00C9429060C942F06112431
:100D20000C9474060E94510670F3959FC1F3950FC1
:100D300050E0551F629FF001729FBB27F00DB11D5F
:100D4000639FAA27F00DB11DAA1F649F6627B00DEF
:100D5000A11D661F829F2227B00DA11D621F739FD8
:100D6000B00DA11D621F839FA00D611D221F749FE6
:100D70003327A00D611D231F849F600D211D822F2D
:100D8000762F6A2F11249F5750409AF0F1F0882354
:100D90004AF0EE0FFF1FBB1F661F771F881F915081
:100DA0005040A9F79E3F510580F00C9429060C9401
:100DB00074065F3FE4F3983ED4F386957795679584
:100DC000B795F795E7959F5FC1F7FE2B880F911DAB
:100DD0009695879597F9089508950E9467090E944E
:100DE000EC060E94E200C0E0D0E00E94910420974F
:100DF000E1F30E940000F9CF80E090E008950895AB
:100E0000CF92DF92EF92FF920F931F93CF93DF93D6
:100E10006C017A018B01C0E0D0E0CE15DF0581F0D6
:100E2000D8016D918D01D601ED91FC910190F08179
:100E3000E02DC6010995892B11F02196EECF7E0198
:100E4000C701DF91CF911F910F91FF90EF90DF903D
:100E5000CF9008956115710579F0FB010190002094
:100E6000E9F73197AF01461B570BDC01ED91FC917F
:100E70000280F381E02D099480E090E00895EF92E4
:100E8000FF920F931F93CF93DF938C017B01C0E000
:100E9000D0E0F701EC0FFD1F6491662361F0D801EB
:100EA000ED91FC910190F081E02DC8010995892B0D
:100EB00011F02196EECFCE01DF91CF911F910F91CE
:100EC000FF90EF9008950C942A07DC01ED91FC91BE
:100ED0000190F081E02D09948F929F92AF92BF9282
:100EE000EF92FF920F931F93CF93DF93CDB7DEB7AF
:100EF000A1970FB6F894DEBF0FBECDBF7C01FA01FB
:100F0000CB0119A2223008F42AE08E010F5D1F4F99
:100F1000822E912CA12CB12CBF01A50194010E941D
:100F20005E0CF901CA01015011096A3010F4605DCC
:100F300001C0695CD8016C93232B242B252B61F70E
:100F4000B801C7010E942A07A1960FB6F894DEBF28
:100F50000FBECDBFDF91CF911F910F91FF90EF900A
:100F6000BF90AF909F908F9008952115310541F467
:100F7000DC01ED91FC910190F081E02D642F09944A
:100F80000C946C079A01AB0160E070E00C94B5071B
:100F90007F928F929F92AF92BF92CF92DF92EF9209
:100FA000FF920F931F93CF93DF938C016A017B0114
:100FB000722E9A01AB01C701B6010E94590C882319
:100FC00019F068E171E027C046015701E894B7F8CD
:100FD0002FEF3FEF4FE75FE7C501B4010E94590CC7
:100FE00081110DC02FEF3FEF4FE75FE7C501B4015F
:100FF0000E94510518161CF46CE171E00CC02FEF33
:101000003FEF4FE75FE4C701B6010E947A0618166A
:1010100094F460E271E0C801DF91CF911F910F91CC
:10102000FF90EF90DF90CF90BF90AF909F908F9008
:101030007F900C942A072FEF3FEF4FE75FECC7013B
:10104000B6010E94510587FDE4CF20E030E0A90100
:10105000C701B6010E94510587FF0AC06DE2C801B1
:101060000E946507EC01F7FAF094F7F8F09402C0DB
:10107000C0E0D0E0B12C60E070E080E09FE37B1442
:1010800041F020E030E040E251E40E945605B39484
:10109000F6CFA70196010E94E5046B017C010E9436
:1010A0002A0C4B015C012AE0AB01BC01C8010E9483
:1010B0006C07C80FD91F7720B9F1C501B4010E9490
:1010C000C8059B01AC01C701B6010E94E4046B0195
:1010D0007C016EE2C8010E946507C80FD91F20E09D
:1010E00030E040E251E4C701B6010E947F064B01A7
:1010F0005C010E942A0C6B017C014AE050E0C801AF
:101100000E94C207C80FD91FB60180E090E00E947C
:10111000C8059B01AC01C501B4010E94E4046B0148
:101120007C017A947110DBCFCE01DF91CF911F91BA
:101130000F91FF90EF90DF90CF90BF90AF909F9076
:101140008F907F9008950C94C8071F920F920FB64E
:101150000F9211242F933F938F939F93AF93BF933D
:101160008091690190916A01A0916B01B0916C012D
:101170003091680123E0230F2D3720F40196A11D43
:10118000B11D05C026E8230F0296A11DB11D2093B5
:1011900068018093690190936A01A0936B01B093F9
:1011A0006C0180916D0190916E01A0916F01B091E1
:1011B00070010196A11DB11D80936D0190936E0188
:1011C000A0936F01B0937001BF91AF919F918F91E8
:1011D0003F912F910F900FBE0F901F9018952FB732
:1011E000F8946091690170916A0180916B0190910E
:1011F0006C012FBF08953FB7F89480916D019091D5
:101200006E01A0916F01B091700126B5A89B05C039
:101210002F3F19F00196A11DB11D3FBFBA2FA92F75
:10122000982F8827820F911DA11DB11DBC01CD01F2
:1012300042E0660F771F881F991F4A95D1F70895DE
:101240008F929F92AF92BF92CF92DF92EF92FF92D6
:101250006B017C010E94FB084B015C01C114D104AD
:10126000E104F10401F10E94290C0E94FB08DC0159
:10127000CB0188199909AA09BB09883E9340A105A9
:10128000B10560F321E0C21AD108E108F10888EE47
:10129000880E83E0981EA11CB11CC114D104E10486
:1012A000F10419F7DBCFFF90EF90DF90CF90BF9064
:1012B000AF909F908F9008958230910538F0880FFD
:1012C000991F880F991F05970197F1F70895789452
:1012D00084B5826084BD84B5816084BD85B582603B
:1012E00085BD85B5816085BDEEE6F0E080818160D9
:1012F0008083E1E8F0E010828081826080838081D9
:1013000081608083E0E8F0E0808181608083E1EBB0
:10131000F0E0808184608083E0EBF0E08081816098
:101320008083EAE7F0E0808184608083808182604E
:101330008083808181608083808180688083109237
:10134000C1000895833081F028F4813099F0823013
:10135000A1F008958730A9F08830B9F08430D1F435
:10136000809180008F7D03C0809180008F77809373
:101370008000089584B58F7702C084B58F7D84BDC9
:1013800008958091B0008F7703C08091B0008F7D69
:101390008093B0000895CF93DF9390E0FC01E95370
:1013A000FF4F2491FC01E552FF4F8491882361F1A6
:1013B00090E0880F991FFC01ED5FFE4FC591D4911D
:1013C000FC01E750FF4FA591B491611109C09FB78F
:1013D000F8948881209582238883EC912E230BC07A
:1013E000623061F49FB7F8948881322F309583235F
:1013F0008883EC912E2B2C939FBF06C08FB7F89457
:10140000E8812E2B28838FBFDF91CF9108951F9302
:10141000CF93DF93282F30E0F901ED54FF4F8491F3
:10142000F901E953FF4FD491F901E552FF4FC491FF
:10143000CC23C1F0162F81110E94A209EC2FF0E0FD
:10144000EE0FFF1FE750FF4FA591B4919FB7F8949F
:10145000111104C08C91D095D82302C0EC91DE2BE1
:10146000DC939FBFDF91CF911F910895CF93DF93BE
:10147000282F30E0F901ED54FF4F8491F901E95331
:10148000FF4FD491F901E552FF4FC491CC2391F065
:1014900081110E94A209EC2FF0E0EE0FFF1FE15135
:1014A000FF4FA591B491EC91ED2381E090E021F400
:1014B00080E002C080E090E0DF91CF910895CF936B
:1014C000DF93EC0160E08E810E94070A81E090E0EA
:1014D0000E945C0961E08E810E94070A81E090E031
:1014E0000E945C0960E08E810E94070A84E690E019
:1014F000DF91CF910C945C09CF92DF92EF92FF9233
:101500000F931F93CF93DF936C017C0187E0E80E6C
:10151000F11CC0E0D0E0062F10E0B8010C2E02C094
:10152000759567950A94E2F76170F70181917F01E3
:101530000E94070A2196C430D10579F7C601DF91D0
:10154000CF911F910F91FF90EF90DF90CF900C946F
:101550005F0ACF92DF92EF92FF920F931F93CF9388
:10156000DF936C017C0187E0E80EF11CC0E0D0E065
:10157000062F10E0B8010C2E02C0759567950A94ED
:10158000E2F76170F70181917F010E94070A2196BD
:10159000C830D10579F7C601DF91CF911F910F9126
:1015A000FF90EF90DF90CF900C945F0A1F93CF9342
:1015B000DF93EC01162F642F8C810E94070A8D8126
:1015C0008F3F19F060E00E94070A8F85612F84FF2A
:1015D00006C0CE01DF91CF911F910C94A90A70E053
:1015E00084E0759567958A95E1F7CE010E947C0AA3
:1015F000612FCE01DF91CF911F910C947C0A40E0C6
:101600000C94D60A61E00E94FF0A80ED97E00C94EA
:101610005C09FC01443008F043E08389481710F06E
:101620004FEF480FDF01A40FB11D54969C91690F35
:101630006068CF010C94FF0AFC016089262F2460AA
:10164000208B6C600C94FF0AEF92FF920F931F9314
:10165000CF93DF93EC01423018F08F8588608F873D
:101660004B8B1C8A80E48D8B6E8B70E0605C7F4FAF
:101670006F8B222329F0413019F48F8584608F8786
:1016800061E08C810E94CB098D818F3F19F061E070
:101690000E94CB0961E08E810E94CB097E0187E028
:1016A000E80EF11C00E010E08F8584FD03C084E0AB
:1016B00090E002C088E090E0081719074CF461E060
:1016C000F70181917F010E94CB090F5F1F4FECCF83
:1016D00080E593EC0E945C0960E08C810E94070A1F
:1016E00060E08E810E94070A8D818F3F19F060E0D3
:1016F0000E94070A6F8564FD1DC063E0CE010E9451
:101700007C0A84E991E10E945C0963E0CE010E94B9
:101710007C0A84E991E10E945C0963E0CE010E94A9
:101720007C0A86E990E00E945C0962E0CE010E949A
:101730007C0A16C06062CE010E94FF0A84E991E132
:101740000E945C096F856062CE010E94FF0A86E9F3
:1017500090E00E945C096F856062CE010E94FF0AE2
:101760006F856062CE010E94FF0A84E0888BCE0103
:101770000E941C0BCE010E94020B82E0898B66E066
:10178000CE01DF91CF911F910F91FF90EF900C94BC
:10179000FF0ACF92EF920F93FC011382128288E22C
:1017A00091E09183808364838FEF858346832783D1
:1017B0000087E186C28613861486158616861786EC
:1017C00020E041E060E1CF010F91EF90CF900C94C9
:1017D000240B41E00E94D60A81E090E00895CF9367
:1017E000DF93EC01862F69834A8360E00E94CB0976
:1017F00060E08A810E94CB0961E089810E94070A2A
:1018000061E08A810E94070A1882DF91CF910895D2
:101810000F931F93CF93DF93EC018A810E94360AC6
:101820008C0189810E94360AE881EF70000F111F38
:10183000802B94E0E99FF0011124E05DFE4FE80F5A
:10184000F11D808188838073DF91CF911F910F916B
:10185000089508950E94590688F09F5798F0B92F6F
:101860009927B751B0F0E1F0660F771F881F991FD5
:101870001AF0BA95C9F714C0B13091F00E947306FE
:10188000B1E008950C947306672F782F8827B85F0E
:1018900039F0B93FCCF3869577956795B395D9F72D
:1018A0003EF490958095709561957F4F8F4F9F4F37
:1018B00008950E940506880B990B0895A1E21A2E3F
:1018C000AA1BBB1BFD010DC0AA1FBB1FEE1FFF1FE4
:1018D000A217B307E407F50720F0A21BB30BE40B34
:1018E000F50B661F771F881F991F1A9469F760957B
:1018F0007095809590959B01AC01BD01CF01089535
:10190000052E97FB1EF400940E94970C57FD07D0FC
:101910000E945E0C07FC03D04EF40C94970C50957B
:101920004095309521953F4F4F4F5F4F08959095CB
:101930008095709561957F4F8F4F9F4F0895EE0F63
:0E194000FF1F0590F491E02D0994F894FFCF5D
:10194E000100002041070176312E37002E2E2E4F3A
:10195E004E2E2E2E000D0A006E616E00696E660010
:10196E006F76660000000000E90B0007FC06FF061C
:10197E000002040003000110030200000302010034
:0C198E0006000400060500200605040009
:00000001FF
