S00D0000504C5352312E73726563A5
S11300000C9462000C948A000C948A000C948A006C
S11300100C948A000C948A000C948A000C948A0034
S11300200C948A000C948A000C948A000C948A0024
S11300300C948A000C948A000C948A000C948A0014
S11300400C9489060C948A000C948A000C948A00FF
S11300500C948A000C948A000C948A000C948A00F4
S11300600C948A000C948A0000000008000201002D
S1130070000304070000000000000000010204085F
S113008010204080010204081020010204081020FE
S1130090040404040404040402020202020203032A
S11300A003030303000000002300260029000000CE
S11300B00000250028002B00000000002400270079
S11300C02A00AA0211241FBECFEFD8E0DEBFCDBFA5
S11300D012E0A0E0B1E0E4E4F4E102C005900D9286
S11300E0A03AB107D9F722E0A0EAB2E001C01D921C
S11300F0A33CB207E1F710E0C2E6D0E004C02197C8
S1130100FE010E941A0AC136D107C9F70E94F504FC
S11301100C94200A0C94000082EA92E00E94E60803
S113012041E065E082EA92E00E94ED0865E572E054
S113013082EA92E00E94470542E066E082EA92E0A9
S11301400E94ED08E091A002F091A102EE0FFF1FC2
S1130150EE0FFF1FEE5FFE4F40815181628173817C
S113016022E030E082EA92E00C94870660E08EE0C0
S11301700E94AF0760E08FE00E94AF0760E080E17B
S11301800E94AF0761E081E10E94AF0761E081E175
S11301900E94EB0720E044E060E182EA92E00E94E2
S11301A008090C948C008F929F92AF92BF92CF92C9
S11301B0DF92EF92FF921F93CF93DF93182FEA0100
S11301C00E94D3066B017C014E010D2E000CAA087F
S11301D0BB08812F0E941A08892B69F00E94D3065C
S11301E0DC01CB018C199D09AE09BF09881599055D
S11301F0AA05BB0570F30E94D3066C197D096C1720
S11302007D071CF08FEF9FEF01C0CB01DF91CF91F1
S11302101F91FF90EF90DF90CF90BF90AF909F9091
S11302208F9008951F93CF93DF93C82F192FD62F44
S11302300E941A08892B09F44EC048EE53E060E08E
S11302408C2F912F0E94D300019639F58091A00242
S11302509091A102D11105C01816190684F40197D2
S11302600AC0209100013091010121503109821707
S1130270930728F401969093A1028093A0020E9410
S11302808C0064E670E080E090E00E9404078C2F0C
S11302900E941A08892BD1F61EC08091A002909169
S11302A0A102D11105C01816190684F401970AC0D9
S11302B020910001309101012150310982179307E7
S11302C028F401969093A1028093A002DF91CF912C
S11302D01F910C948C00DF91CF911F9108954F9240
S11302E05F926F927F928F929F92AF92BF92CF92C2
S11302F0DF92EF92FF92CF93DF9360E08EE090E085
S11303000E94120161E080E190E00E9412018FE0FE
S11303100E941A08892B09F40EC18FE00E941A0862
S1130320892BD9F70E94D3066B017C0160E081E13F
S11303300E94EB0782EA92E00E94E60841E063E053
S113034082EA92E00E94ED086BE572E082EA92E0B4
S11303500E94470594E6892E912CA12CB12C0E9471
S1130360D3066C197D098E099F090E94D0032B01C5
S11303703C01E091A002F091A102EE0FFF1FEE0FED
S1130380FF1FEE5FFE4F20E030E04AE754E4608157
S11303907181828193810E9482049B01AC01C3011B
S11303A0B2010E942A0318160CF456C08EE00E9473
S11303B01A08892B09F473C080E10E941A08892B5A
S11303C009F46DC061E081E10E94EB0741E063E064
S11303D082EA92E00E94ED0867E672E082EA92E027
S11303E00E94470541E063E082EA92E00E94ED0842
S11303F06BE772E082EA92E00E94470564EF71E0E5
S113040080E090E00E940407CEEED2E062E070E06B
S113041080E090E00E9404078EE00E941A08892B75
S113042059F48FE00E941A08892B31F480E10E946C
S11304301A08892B09F46BC08EE00E941A08892BD4
S1130440D9F78FE00E941A08892BB1F780E10E9446
S11304501A08892B89F75FC061E081E10E94EB07EC
S113046041E063E082EA92E00E94ED0867E672E010
S113047082EA92E00E94470541E063E082EA92E06A
S11304800E94ED0863E772E082EA92E00E94470569
S113049068EE73E080E090E00E9404073CC00E9494
S11304A0D3066C197D098E099F09A50194010E9448
S11304B0FB09672B682B692B09F051CF42E066E0FA
S11304C082EA92E00E94ED0868E672E082EA92E035
S11304D00E94470542E066E082EA92E00E94ED084D
S11304E00E94D3066C197D098E099F090E94D003CE
S11304F020E030E04AE754E40E942F03AB01BC0142
S113050021E030E082EA92E00E94870628CF21971A
S113051009F07CCF91CFDF91CF91FF90EF90DF90E6
S1130520CF90BF90AF909F908F907F906F905F908F
S11305304F900C948C00DF91CF91FF90EF90DF905F
S1130540CF90BF90AF909F908F907F906F905F906F
S11305504F900895CF92EF920F9387E0C82E96E0C4
S1130560E92E05E024E043E062E082EA92E00E94A2
S1130570AD090F91EF90CF9008955058BB27AA274B
S11305800E94D5020C9448040E943A0438F00E9458
S1130590410420F039F49F3F19F426F40C943704F5
S11305A00EF4E095E7FB0C943104E92F0E94590402
S11305B058F3BA17620773078407950720F079F494
S11305C0A6F50C947B040EF4E0950B2EBA2FA02D07
S11305D00B01B90190010C01CA01A0011124FF27EC
S11305E0591B99F0593F50F4503E68F11A16F040E7
S11305F0A22F232F342F4427585FF3CF46953795E6
S11306002795A795F0405395C9F77EF41F16BA0BAA
S1130610620B730B840BBAF09150A1F0FF0FBB1F58
S1130620661F771F881FC2F70EC0BA0F621F731FA1
S1130630841F48F4879577956795B795F7959E3FFE
S113064008F0B0CF9395880F08F09927EE0F97958F
S1130650879508950E940D0408F481E008950E948E
S113066043030C9448040E94410458F00E943A0445
S113067040F029F45F3F29F00C94310451110C949B
S11306807C040C9437040E94590468F39923B1F351
S1130690552391F3951B550BBB27AA2762177307A4
S11306A0840738F09F5F5F4F220F331F441FAA1F38
S11306B0A9F335D00E2E3AF0E0E832D091505040F4
S11306C0E695001CCAF72BD0FE2F29D0660F771FA2
S11306D0881FBB1F261737074807AB07B0E809F088
S11306E0BB0B802DBF01FF2793585F4F3AF09E3F0D
S11306F0510578F00C9431040C947C045F3FE4F3CE
S1130700983ED4F3869577956795B795F7959F5F4F
S1130710C9F7880F911D9695879597F90895E1E09B
S1130720660F771F881FBB1F621773078407BA07FA
S113073020F0621B730B840BBA0BEE1F88F7E09555
S113074008950E94610488F09F5798F0B92F992763
S1130750B751B0F0E1F0660F771F881F991F1AF0A8
S1130760BA95C9F714C0B13091F00E947B04B1E08E
S113077008950C947B04672F782F8827B85F39F08D
S1130780B93FCCF3869577956795B395D9F73EF441
S113079090958095709561957F4F8F4F9F4F0895E9
S11307A0E89409C097FB3EF4909580957095619507
S11307B07F4F8F4F9F4F9923A9F0F92F96E9BB27BD
S11307C09395F695879577956795B795F111F8CF39
S11307D0FAF4BB0F11F460FF1BC06F5F7F4F8F4FA4
S11307E09F4F16C0882311F096E911C0772321F09A
S11307F09EE8872F762F05C0662371F096E8862F32
S113080070E060E02AF09A95660F771F881FDAF788
S1130810880F9695879597F90895990F0008550FB5
S1130820AA0BE0E8FEEF16161706E807F907C0F072
S113083012161306E407F50798F0621B730B840B7A
S1130840950B39F40A2661F0232B242B252B21F454
S113085008950A2609F4A140A6958FEF811D811DF4
S1130860089597F99F6780E870E060E008959FEF2E
S113087080EC089500240A94161617061806090633
S1130880089500240A941216130614060506089502
S1130890092E0394000C11F4882352F0BB0F40F48A
S11308A0BF2B11F460FF04C06F5F7F4F8F4F9F4FCA
S11308B0089557FD9058440F551F59F05F3F71F04C
S11308C04795880F97FB991F61F09F3F79F08795B3
S11308D00895121613061406551FF2CF4695F1DF3C
S11308E008C0161617061806991FF1CF86957105CC
S11308F0610508940895E894BB2766277727CB0100
S113090097F908950E9495040C9448040E943A04AF
S113091038F00E94410420F0952311F00C94310426
S11309200C94370411240C947C040E94590470F331
S1130930959FC1F3950F50E0551F629FF001729F80
S1130940BB27F00DB11D639FAA27F00DB11DAA1F8F
S1130950649F6627B00DA11D661F829F2227B00DDC
S1130960A11D621F739FB00DA11D621F839FA00D67
S1130970611D221F749F3327A00D611D231F849FB7
S1130980600D211D822F762F6A2F11249F5750400E
S11309909AF0F1F088234AF0EE0FFF1FBB1F661F89
S11309A0771F881F91505040A9F79E3F510580F052
S11309B00C9431040C947C045F3FE4F3983ED4F32C
S11309C0869577956795B795F795E7959F5FC1F7F6
S11309D0FE2B880F911D9695879597F908950E948F
S11309E00D04880B990B089508950E944B070E94EB
S11309F0F4040E94B600C0E0D0E00E946F0120978A
S1130A00E1F30E940000F9CF80E090E0089508959A
S1130A10CF92DF92EF92FF920F931F93CF93DF93C6
S1130A206C017A018B01C0E0D0E0CE15DF0581F0C6
S1130A30D8016D918D01D601ED91FC910190F08169
S1130A40E02DC6010995892B11F02196EECF7E0188
S1130A50C701DF91CF911F910F91FF90EF90DF902D
S1130A60CF9008956115710579F0FB010190002084
S1130A70E9F73197AF01461B570BDC01ED91FC916F
S1130A800280F381E02D099480E090E008950C94B5
S1130A903205DC01ED91FC910190F081E02D099487
S1130AA08F929F92AF92BF92EF92FF920F931F93F8
S1130AB0CF93DF93CDB7DEB7A1970FB6F894DEBF1F
S1130AC00FBECDBF7C01FA01CB0119A2223008F47C
S1130AD02AE08E010F5D1F4F822E912CA12CB12C88
S1130AE0BF01A50194010E94D909F901CA0101506D
S1130AF011096A3010F4605D01C0695CD8016C931F
S1130B00232B242B252B61F7B801C7010E94320542
S1130B10A1960FB6F894DEBF0FBECDBFDF91CF9183
S1130B201F910F91FF90EF90BF90AF909F908F9087
S1130B3008952115310541F4DC01ED91FC910190FA
S1130B40F081E02D642F09940C9450059A01AB01B7
S1130B5060E070E00C9499057F928F929F92AF921F
S1130B60BF92CF92DF92EF92FF920F931F93CF9396
S1130B70DF938C016A017B01722E9A01AB01C701DC
S1130B80B6010E94EF04882319F068E872E027C0D8
S1130B9046015701E894B7F82FEF3FEF4FE75FE7BF
S1130BA0C501B4010E94EF0481110DC02FEF3FEF86
S1130BB04FE75FE7C501B4010E942A0318161CF42D
S1130BC06CE872E00CC02FEF3FEF4FE75FE4C70122
S1130BD0B6010E94D409181694F460E972E0C801C1
S1130BE0DF91CF911F910F91FF90EF90DF90CF9005
S1130BF0BF90AF909F908F907F900C9432052FEF11
S1130C003FEF4FE75FECC701B6010E942A0387FD5F
S1130C10E4CF20E030E0A901C701B6010E942A0315
S1130C2087FF0AC06DE2C8010E944905EC01F7FA8A
S1130C30F094F7F8F09402C0C0E0D0E0B12C60E08A
S1130C4070E080E09FE37B1441F020E030E040E27C
S1130C5051E40E942F03B394F6CFA70196010E949A
S1130C60BE026B017C010E94A1034B015C012AE0DE
S1130C70AB01BC01C8010E945005C80FD91F7720E1
S1130C80B9F1C501B4010E94D0039B01AC01C701B5
S1130C90B6010E94BD026B017C016EE2C8010E9494
S1130CA04905C80FD91F20E030E040E251E4C701F4
S1130CB0B6010E9482044B015C010E94A1036B01F6
S1130CC07C014AE050E0C8010E94A605C80FD91F64
S1130CD0B60180E090E00E94D0039B01AC01C50105
S1130CE0B4010E94BD026B017C017A947110DBCFC8
S1130CF0CE01DF91CF911F910F91FF90EF90DF9084
S1130D00CF90BF90AF909F908F907F9008950C9458
S1130D10AC051F920F920FB60F9211242F933F939D
S1130D208F939F93AF93BF938091BB029091BC022A
S1130D30A091BD02B091BE023091BA0223E0230F0C
S1130D402D3720F40196A11DB11D05C026E8230FFF
S1130D500296A11DB11D2093BA028093BB02909309
S1130D60BC02A093BD02B093BE028091BF029091D9
S1130D70C002A091C102B091C2020196A11DB11D91
S1130D808093BF029093C002A093C102B093C202A9
S1130D90BF91AF919F918F913F912F910F900FBE73
S1130DA00F901F9018952FB7F8946091BB02709123
S1130DB0BC028091BD029091BE022FBF08953FB73F
S1130DC0F8948091BF029091C002A091C102B091A9
S1130DD0C20226B5A89B05C02F3F19F00196A11D9C
S1130DE0B11D3FBFBA2FA92F982F8827820F911DBD
S1130DF0A11DB11DBC01CD0142E0660F771F881F04
S1130E00991F4A95D1F708958F929F92AF92BF92FE
S1130E10CF92DF92EF92FF926B017C010E94DF067A
S1130E204B015C01C114D104E104F10401F10E94FD
S1130E30D3090E94DF06DC01CB0188199909AA09AC
S1130E40BB09883E9340A105B10560F321E0C21AB5
S1130E50D108E108F10888EE880E83E0981EA11CF1
S1130E60B11CC114D104E104F10419F7DBCFFF90E4
S1130E70EF90DF90CF90BF90AF909F908F900895A8
S1130E808230910538F0880F991F880F991F0597B4
S1130E900197F1F70895789484B5826084BD84B590
S1130EA0816084BD85B5826085BD85B5816085BD61
S1130EB0EEE6F0E0808181608083E1E8F0E010827A
S1130EC0808182608083808181608083E0E8F0E0BB
S1130ED0808181608083E1EBF0E0808184608083A5
S1130EE0E0EBF0E0808181608083EAE7F0E08081DC
S1130EF0846080838081826080838081816080833C
S1130F008081806880831092C1000895833081F0CD
S1130F1028F4813099F08230A1F008958730A9F047
S1130F208830B9F08430D1F4809180008F7D03C083
S1130F30809180008F7780938000089584B58F77A7
S1130F4002C084B58F7D84BD08958091B0008F77F1
S1130F5003C08091B0008F7D8093B0000895CF933B
S1130F60DF9390E0FC01E458FF4F2491FC01E0572B
S1130F70FF4F8491882361F190E0880F991FFC0151
S1130F80E854FF4FC591D491FC01E255FF4FA59160
S1130F90B491611109C09FB7F89488812095822388
S1130FA08883EC912E230BC0623061F49FB7F894D0
S1130FB08881322F309583238883EC912E2B2C93B8
S1130FC09FBF06C08FB7F894E8812E2B28838FBF6C
S1130FD0DF91CF9108951F93CF93DF93282F30E0B3
S1130FE0F901E859FF4F8491F901E458FF4FD49176
S1130FF0F901E057FF4FC491CC23C1F0162F8111A2
S11310000E948607EC2FF0E0EE0FFF1FE255FF4F22
S1131010A591B4919FB7F894111104C08C91D09507
S1131020D82302C0EC91DE2BDC939FBFDF91CF91DC
S11310301F910895CF93DF93282F30E0F901E859E9
S1131040FF4F8491F901E458FF4FD491F901E0571F
S1131050FF4FC491CC2391F081110E948607EC2F9D
S1131060F0E0EE0FFF1FEC55FF4FA591B491EC910A
S1131070ED2381E090E021F480E002C080E090E084
S1131080DF91CF910895CF93DF93EC0160E08E81DF
S11310900E94EB0781E090E00E94400761E08E81AE
S11310A00E94EB0781E090E00E94400760E08E819F
S11310B00E94EB0784E690E0DF91CF910C94400707
S11310C0CF92DF92EF92FF920F931F93CF93DF9310
S11310D06C017C0187E0E80EF11CC0E0D0E0062F33
S11310E010E0B8010C2E02C0759567950A94E2F7DA
S11310F06170F70181917F010E94EB072196C43052
S1131100D10579F7C601DF91CF911F910F91FF901F
S1131110EF90DF90CF900C944308CF92DF92EF9240
S1131120FF920F931F93CF93DF936C017C0187E0B1
S1131130E80EF11CC0E0D0E0062F10E0B8010C2E40
S113114002C0759567950A94E2F76170F701819181
S11311507F010E94EB072196C830D10579F7C601BB
S1131160DF91CF911F910F91FF90EF90DF90CF907F
S11311700C9443081F93CF93DF93EC01162F642F35
S11311808C810E94EB078D818F3F19F060E00E94F3
S1131190EB078F85612F84FF06C0CE01DF91CF91CD
S11311A01F910C948D0870E084E0759567958A957D
S11311B0E1F7CE010E946008612FCE01DF91CF914B
S11311C01F910C94600840E00C94BA0861E00E94FE
S11311D0E30880ED97E00C944007FC01443008F0EC
S11311E043E08389481710F04FEF480FDF01A40F45
S11311F0B11D54969C91690F6068CF010C94E3086B
S1131200FC016089262F2460208B6C600C94E30819
S1131210EF92FF920F931F93CF93DF93EC01423031
S113122018F08F8588608F874B8B1C8A80E48D8BA8
S11312306E8B70E0605C7F4F6F8B222329F041300E
S113124019F48F8584608F8761E08C810E94AF07D9
S11312508D818F3F19F061E00E94AF0761E08E81BC
S11312600E94AF077E0187E0E80EF11C00E010E069
S11312708F8584FD03C084E090E002C088E090E0A4
S1131280081719074CF461E0F70181917F010E946E
S1131290AF070F5F1F4FECCF80E593EC0E94400730
S11312A060E08C810E94EB0760E08E810E94EB0776
S11312B08D818F3F19F060E00E94EB076F8564FD1C
S11312C01DC063E0CE010E94600884E991E10E94A0
S11312D0400763E0CE010E94600884E991E10E9426
S11312E0400763E0CE010E94600886E990E00E9416
S11312F0400762E0CE010E94600816C06062CE0121
S11313000E94E30884E991E10E9440076F856062CE
S1131310CE010E94E30886E990E00E9440076F85B1
S11313206062CE010E94E3086F856062CE010E9474
S1131330E30884E0888BCE010E940009CE010E945C
S1131340E60882E0898B66E0CE01DF91CF911F91A0
S11313500F91FF90EF900C94E308CF92EF920F93CC
S1131360FC011382128288E992E091838083648372
S11313708FEF8583468327830087E186C2861386A1
S1131380148615861686178620E041E060E1CF01B9
S11313900F91EF90CF900C94080941E00E94BA0895
S11313A081E090E0089508950E940D0408F48FEF01
S11313B00895A1E21A2EAA1BBB1BFD010DC0AA1F92
S11313C0BB1FEE1FFF1FA217B307E407F50720F0AA
S11313D0A21BB30BE40BF50B661F771F881F991F25
S11313E01A9469F760957095809590959B01AC016E
S11313F0BD01CF010895052E97FB1EF400940E94B1
S1131400120A57FD07D00E94D90907FC03D04EF4F5
S11314100C94120A50954095309521953F4F4F4FAB
S11314205F4F089590958095709561957F4F8F4F8C
S11314309F4F0895EE0FFF1F0590F491E02D09943E
S1071440F894FFCF4A
S11314444E00CDCCCC3DCDCC4C3E9A99993ECDCCDE
S1131454CC3E0000003F9A99193F3333333FCDCC3F
S11314644C3F6666663F0000803F0000C03F0000BA
S113147400400000204000004040000060400000A4
S11314848040000090400000A0400000B0400000F4
S1131494C0400000D0400000E0400000F0400000E4
S11314A40041000008410000104100001841000000
S11314B42041000030410000404100005041000040
S11314C46041000070410000804100008841000038
S11314D49041000098410000A0410000A841000090
S11314E4B0410000B8410000C0410000C841000000
S11314F4D0410000D8410000E0410000E841000070
S1131504F0410000F84100000042000004420000E1
S1131514084200000C420000104200001442000083
S1131524184200001C420000204200002442000033
S1131534284200002C4200003042000034420000E3
S1131544384200003C420000404200004442000093
S1131554484200004C420000504200005442000043
S1131564584200005C4200006042000064420000F3
S1131574684200006C4200007042494E46004E61CD
S11315844E0025256C642E25253025646C64204585
S113159425252B640054696D653A004578706F7392
S11315A4696E672E2E2E002020202020202020204B
S11315B42020002020444F4E45210043616E636582
S11315C46C656421000D0A006E616E00696E66002C
S11315D46F76660000000000CD09080504050705C0
S9030000FC
